:100000000C9406010C941C130C944D130C947E1349
:100010000C94AF130C94E0130C9411140C94421430
:100020000C9473140C9433010C9433010C9433012D
:100030000C9433010C9433010C9433010C94330170
:100040000C9433010C9433010C9433010C94330160
:100050000C9433010C9433010C9433010C94B314BD
:100060000C9433010C94500D0C94980E0C943301A5
:100070000C9433010C9433010C9433010C94330130
:100080000C9433010C9433010C9433010C94330120
:100090000C94900D0C94D70E0C9433010C94140214
:1000A0000C9433010C9433010C9433010C94330100
:1000B0000C9433010C9433010C9433010C943301F0
:1000C0000C9433010C9433010C9433010C94D00D37
:1000D0000C94160F0C9433010C94100E0C94550FC5
:1000E0000C94330100002100240027002A002D0079
:1000F0003000330001010000040107010A01000083
:100100002200250028002B002E00310034000201BF
:100110000000050108010B0100002000230026005B
:1001200029002C002F00320000010000030106010D
:10013000090105050505070508080808020202026D
:100140000A0A080804040404010101010101010173
:100150000303030303030303040707070C0C0C0C3E
:100160000C0C0C0C02020202060606060606060627
:100170000B0B0B0B0B0B0B0B0102102020080810B4
:100180002040102040800201020108040201010207
:1001900004081020408080402010080402018004E0
:1001A000020180402010080402010804020101023B
:1001B0000408102040800102040810204080000044
:1001C000090A02080B0C0D070603040100000000D9
:1001D000000000000000000000000000000000001F
:1001E0000000000000000000000011100F000000DF
:1001F00000000000000000000000000000000000FF
:10020000000000000104C30BC510BC0B11241FBE6D
:10021000CFEFD1E2DEBFCDBF00E00CBF12E0A0E027
:10022000B2E0E0EAF0E300E00BBF02C007900D92FD
:10023000A638B107D9F71BBE16E0A6E8B2E001C0A8
:100240001D92A53AB107E1F712E0CAE0D2E004C07E
:100250002297FE010E943F18C430D107C9F70E94BF
:10026000A4140C9443180C940000880F8093BA00D7
:100270000895382F413210F040E042C0809186024C
:100280008823E1F791E090938602209388028FEF14
:100290008093F3021092AE0241504093AF024F5F41
:1002A0009093870280918702330F832B809387027C
:1002B00080918902813041F41092890280918702F5
:1002C0008093BB0085EC01C085EE8093BC008091DB
:1002D00086028130E1F38091AE02841710F44091E0
:1002E000AE0220E030E00AC0FB01E20FF31FD901AB
:1002F000A257BD4F8C9180832F5F3F4F2417A0F3EF
:10030000842F08950F931F93582F122F413210F00E
:1003100081E04AC0809186028823E1F782E08093E1
:100320008602009388028FEF8093F3021092AE0250
:100330004093AF02AEE8B2E0FB0102C081918D9321
:100340008E2F861B8417D0F310928702809187022C
:10035000550F852B8093870280918902813041F46B
:1003600010928902809187028093BB0085EC01C0C6
:1003700085EE8093BC00112321F0809186028230AB
:10038000E1F38091F3028F3F11F480E00DC0809182
:10039000F302803211F482E007C08091F3028033CF
:1003A00011F084E001C083E01F910F910895482F60
:1003B000613210F081E0089580918602843011F05E
:1003C00082E008956093D102A0EBB2E0842F9C01FB
:1003D000F90102C081918D938E2F841B8617D0F373
:1003E00080E0089590938D0280938C0208959093FD
:1003F0008B0280938A020895882311F085EC01C056
:1004000085E88093BC00089585ED8093BC008091C1
:10041000BC0084FDFCCF10928602089585EC809389
:10042000BC001092860208951F920F920FB60F9291
:100430000BB60F9211242F933F934F935F936F93BB
:100440007F938F939F93AF93BF93EF93FF9380918D
:10045000B90090E0887F90708036910509F4F2C071
:1004600081369105CCF58832910509F47BC089323B
:100470009105B4F48031910509F46FC08131910583
:100480003CF4009709F447C1089709F04FC165C0D3
:100490008831910509F466C0809709F047C182C090
:1004A0008034910509F4A4C08134910544F480336B
:1004B000910509F482C0C89709F038C189C0803518
:1004C000910509F489C08835910509F496C08834EE
:1004D000910509F02BC1AEC08839910509F413C10B
:1004E00089399105ECF48837910509F4ABC0893757
:1004F00091054CF48836910509F4A4C08037910524
:1005000009F014C19FC08838910509F4FCC08039F6
:10051000910509F49DC08038910509F007C198C084
:10052000803B910509F4C6C0813B91054CF4803AAB
:10053000910509F49FC0883A910509F0F7C0BAC047
:10054000803C910509F4E3C0883C910509F4DFC0C3
:10055000883B910509F0EAC0C2C080918702809370
:10056000BB00CFC09091AE028091AF02981768F4A3
:100570009091AE02E92FF0E0E257FD4F8081809329
:10058000BB009F5F9093AE02BCC08091880288231D
:1005900009F44BC085ED8093BC008091BC0084FDC4
:1005A000FCCFC2C080E28093F30285ED8093BC0053
:1005B0008091BC0084FDFCCFB7C080E38093F30240
:1005C00085ED8093BC008091BC0084FDFCCFACC065
:1005D00088E38093F3029BC08091AE029091BB00B0
:1005E000E82FF0E0E257FD4F90838F5F8093AE02DB
:1005F0009091AE028091AF0282C08091AE02909144
:10060000BB00E82FF0E0E257FD4F90838F5F8093AF
:10061000AE0280918802882341F085ED8093BC0072
:100620008091BC0084FDFCCF7FC081E08093890273
:1006300084EA6EC085ED8093BC008091BC0084FD8F
:10064000FCCF72C083E0809386021092F20259C000
:100650008091F202803208F056C08091F2029091AF
:10066000BB00E82FF0E0EE52FD4F90838F5F809348
:10067000F20247C08091F202803230F4E091F2023F
:10068000F0E0EE52FD4F108285ED8093BC0080912A
:10069000BC0084FDFCCF109286026091F202E091D2
:1006A0008C02F0918D0282ED92E070E0199510922B
:1006B000F2022DC084E0809386021092D002109244
:1006C000D102E0918A02F0918B0219958091D102BA
:1006D000882329F481E08093D1021092B002909196
:1006E000D002E92FF0E0E055FD4F80818093BB0000
:1006F0009F5F9093D0029091D0028091D102981781
:1007000010F485EC01C085E88093BC000FC085EC37
:100710008093BC0009C01092F30285ED8093BC0069
:100720008091BC0084FDFCCF10928602FF91EF9176
:10073000BF91AF919F918F917F916F915F914F91F9
:100740003F912F910F900BBE0F900FBE0F901F90F7
:1007500018951092860281E0809388021092890297
:1007600084E161E00E947E1785E161E00E947E17CE
:10077000E9EBF0E080818E7F808380818D7F8083B4
:1007800088E48093B80085E48093BC00089581E0FC
:100790008093390360931603109237031092380345
:1007A00008952091150330E080911403281B31092E
:1007B000C90108954091140380911503481718F05A
:1007C0002FEF3FEF0AC0E42FF0E0EC50FD4F8081A7
:1007D000282F30E04F5F40931403C9010895E09142
:1007E000140380911503E81718F0EFEFFFEF06C030
:1007F000F0E0EC50FD4F8081E82FF0E0CF0108954C
:10080000089510923D0310923C0388EE93E0A0E01F
:10081000B0E080933E0390933F03A0934003B093D6
:10082000410389E692E090933B0380933A03089555
:10083000CF92DF92EF92FF920F931F93CF93DF93AC
:100840007C016B018A01809139038823A1F0C0E00B
:10085000D0E00DC0D701ED91FC91D601AC0FBD1FCA
:100860000190F081E02DC7016C9119952196C01778
:10087000D10780F304C0CB01642F0E94D701C801C7
:10088000DF91CF911F910F91FF90EF90DF90CF906C
:100890000895DF93CF930F92CDB7DEB7FC01698344
:1008A000809139038823C9F080913803803238F071
:1008B00081E090E09383828320E030E015C0809156
:1008C0003703E82FF0E0E95EFC4F998190838F5F5A
:1008D000809337038093380305C0CE01019661E011
:1008E0000E94D70121E030E0C9010F90CF91DF9144
:1008F00008950F93062F8091160367E173E04091EE
:10090000380321E00E9482011092370310923803CD
:10091000109239030F91089561E00E9479040895BF
:10092000413208F040E2862F64EF72E00E94390104
:100930001092140380931503089521E00E949004FF
:100940000895109214031092150310923703109219
:1009500038030E94A903089585E361E00E947E1791
:1009600085E361E00E94CB168CB580618CBD8CB5AF
:1009700080648CBD84E361E00E94CB1683E361E078
:100980000E94CB160895FC016083418308952F9245
:100990003F924F925F926F927F928F929F92AF920F
:1009A000BF92CF92DF92EF92FF920F931F93CF935C
:1009B000DF935C014B013A0129011801E7018C0129
:1009C0000E5F1F4FE0906302F0906402FC01808193
:1009D00061814BE32EE00E944F06F501928180E099
:1009E000238130E0822B932BF40191838083F501E6
:1009F000948180E0258130E0822B932BF301918359
:100A00008083F501968180E0278130E0822B932B53
:100A1000F20191838083F501928580E0238530E0A7
:100A2000822B932BF10191838083F501948580E0E3
:100A3000258530E0822B932B99838883968580E0EF
:100A4000278530E0822B932BF60191838083DF9101
:100A5000CF911F910F91FF90EF90DF90CF90BF90BB
:100A6000AF909F908F907F906F905F904F903F904E
:100A70002F9008950F93FC01062F808161814BE632
:100A800026E00E9467070F9108950F93FC01808173
:100A900061814BE627E001E00E9467070F9108950E
:100AA0000F93FC01062F808161814AE624E00E94B9
:100AB00067070F910895EF920F93FC01E62E808156
:100AC00061814BE622E003E00E9407070F91EF905F
:100AD0000895EF920F93FC01E62E808161814CE135
:100AE00024E002E00E9407070F91EF900895EF9233
:100AF0000F93FC01E62E808161814BE124E002E04E
:100B00000E9407070F91EF900895EF920F93FC0159
:100B1000E62E808161814AE122E003E00E9407071E
:100B20000F91EF900895AF92BF92CF92DF92EF9224
:100B3000FF920F935C01FC013296C0906302D0904B
:100B40006402DC018C9111966C9145E726E006E089
:100B50007F010E94A907F50182810F91FF90EF901C
:100B6000DF90CF90BF90AF9008950E94930590E0E2
:100B7000843309F491E0892F0895CF93DF93EC013A
:100B800088818823E9F00E94AC04898161E00E9499
:100B9000CB16898161E00E947E17CE010E94450537
:100BA00064E670E080E090E00E942F15CE0161E0E5
:100BB0000E94500561E070E080E090E00E942F15F7
:100BC000CE0161E00E945B05CE0160E00E947705E6
:100BD000CE0160E00E946905CE0160E00E943A0506
:100BE000DF91CF910895DF92EF92FF920F931F93C1
:100BF000CF93DF93F62EE42ED22E8823C9F48AE316
:100C000093E00E94C7038AE393E06E2D0E9449049B
:100C1000E80110E006C08AE393E069910E9449046C
:100C20001F5F1D15C0F38AE393E00E948C041AC075
:100C3000862F60E00E947E17EEBC0DB407FEFDCF4C
:100C40008EB5F80190E008C080818EBD0DB407FE1E
:100C5000FDCF8EB59F5F31969D15B0F38F2D61E06E
:100C60000E947E1781E0DF91CF911F910F91FF903D
:100C7000EF90DF9008950F931F93DF93CF930F9220
:100C8000CDB7DEB7298321E08E010F5F1F4F0E9491
:100C9000F3050F90CF91DF911F910F9108955F920F
:100CA0006F927F928F929F92AF92BF92CF92DF927C
:100CB000EF92FF920F931F93CF93DF93962ED42E34
:100CC000522EC02E5701882309F05EC08AE393E0BC
:100CD0000E94C7038AE393E06D2D0E9449048AE3D2
:100CE00093E00E948C048AE393E0692D0E94C7037D
:100CF0008AE393E0692D452D0E949D040E94FB1418
:100D00003B014C01802F912F9C01E90100E010E094
:100D1000CE018C19D82E8AE393E00E94D103892B4F
:100D200009F462C0A114B10459F00E94FB146619C1
:100D30007709880999096E157F058007910730F4B6
:100D40008AE393E00E94DA038993E2CF0E94FB14C6
:100D50006619770988099909950140E050E0621702
:100D600073078407950758F02D2D332727FD3095FD
:100D7000852D90E02817390714F4DD24DA948AE3EE
:100D800093E00E948C041FC0862F60E00E947E17B3
:100D900090E8D92ADEBC0DB407FEFDCF8EB58C2DB0
:100DA000912F9C01F90106C01EBC0DB407FEFDCFBA
:100DB0008EB581938E2F8C198515B0F3D52C892D86
:100DC00061E00E947E178D2DDF91CF911F910F91D1
:100DD000FF90EF90DF90CF90BF90AF909F908F905B
:100DE0007F906F905F900895A114B10441F2AECF4F
:100DF000EF92FF920F931F93F901780121E08F0189
:100E00000E944F061F910F91FF90EF900895AF92AF
:100E1000BF92CF92DF92EF92FF920F931F93DF93D7
:100E2000CF930F92CDB7DEB7C82EB62EA42EF22EDA
:100E3000D02E00916302109164029E012F5F3F4FFC
:100E40000E94F8068823B9F16F2D70E02D2D30E057
:100E50004E2D50E088E090E0821B930B02C0440FBF
:100E6000551F8A95E2F750E087E090E0861B970BCC
:100E700002C0559547958A95E2F7261B370B295FE7
:100E80003F4F8FEF90E0FC0102C0F595E7952A9562
:100E9000E2F79F016F5F7F4F02C0880F991F6A952D
:100EA000E2F7282B89812823242B29838C2D6B2D75
:100EB0004A2D0E943B060F90CF91DF911F910F9119
:100EC000FF90EF90DF90CF90BF90AF900895BF92CA
:100ED000CF92DF92EF92FF920F931F93DF93CF9306
:100EE0000F92CDB7DEB7D82EC62EB42EE22EF02E3E
:100EF00000916302109164029E012F5F3F4F0E9498
:100F0000F8063981FF2051F081E090E002C0880F9F
:100F1000991FEA94E2F7232F282B0AC081E090E082
:100F200002C0880F991FEA94E2F7282F2095232307
:100F300029838D2D6C2D4B2D0E943B060F90CF9158
:100F4000DF911F910F91FF90EF90DF90CF90BF90B6
:100F50000895AF92BF92CF92DF92EF92FF920F93DC
:100F60001F93DF93CF930F92CDB7DEB7B22EA02E93
:100F700086019E012F5F3F4F0E94F806F82F8823BD
:100F800021F1E9812B2D30E04B2D50E04A19510918
:100F900061E070E00AC0DB0102C0AA0FBB1F8A95A6
:100FA000E2F7CD018E23382B2150822F90E0481795
:100FB00059078CF3832F90E04F5F5F4F02C09595E8
:100FC00087954A95E2F7D7018C938F2F0F90CF9199
:100FD000DF911F910F91FF90EF90DF90CF90BF9026
:100FE000AF9008950F931F938C01FC0180810E94A4
:100FF000F012F80181810E94F0121F910F91089563
:10100000CF92DF92EF92FF920F931F9330C0209107
:101010009D0380919C03482F50E0822F90E0019621
:101020004817590718F02F5F20939D0320919D03C7
:10103000A22FB0E0CD0102964817590718F460E0DE
:1010400070E011C02F5FE22FF0E0E458FC4F828186
:10105000A458BC4F12961C9100E0B801680F711D96
:101060002F5F20939D0384EA93E00E94D20B8CE7CC
:1010700093E00E94820C882351F688E493E068EDA7
:1010800073E04AED53E02CED33E00EED13E0F0EEAB
:10109000EF2EF3E0FF2EE2EECE2EE3E0DE2E0E94F6
:1010A000C70488E593E00E94080C0E94FB14AB0182
:1010B000BC018091780390E004964F9728F528E1D1
:1010C00030E0E0917903F0917A03DB01CA01022E4E
:1010D00004C0B695A795979587950A94D2F7808313
:1010E0008091790390917A03019690937A0380938B
:1010F0007903285030408FEF283F380711F780914F
:1011000078038C5F809378032091D8033091D903C2
:101110008091780390E002964F9710F5E091790363
:10112000F0917A03832F992787FD9A958083E09128
:101130007903F0917A033196F0937A03E09379037F
:10114000319721838091790390917A03019690934E
:101150007A0380937903809178038E5F809378037C
:101160002091DA033091DB038091780390E00296BE
:101170004F9710F5E0917903F0917A03832F992727
:1011800087FD9A958083E0917903F0917A033196F7
:10119000F0937A03E0937903319721838091790367
:1011A00090917A03019690937A03809379038091CA
:1011B00078038E5F809378032091E2033091E303FC
:1011C0008091780390E002964F9710F5E0917903B3
:1011D000F0917A03832F992787FD9A958083E09178
:1011E0007903F0917A033196F0937A03E0937903CF
:1011F000319721838091790390917A03019690939E
:101200007A0380937903809178038E5F80937803CB
:101210004091AE035091AF036091B0037091B10360
:101220008091780390E004964F9728F528E130E00C
:10123000E0917903F0917A03DB01CA01022E04C028
:10124000B595A795979587950A94D2F78083809155
:10125000790390917A03019690937A0380937903AE
:1012600028503040EFEF283F3E0711F78091780378
:101270008C5F809378038091CA039091CB0344974D
:101280006CF10E9409157B018C016091AE03709195
:10129000AF038091B0039091B10324E030E040E0CF
:1012A00050E00E942218DC01CB010296880F991FA2
:1012B000880F991F86559C4FFC0180819181A281E6
:1012C000B381E81AF90A0A0B1B0BF1E5EF16F3ECF0
:1012D000FF06F0E00F07F0E01F07D8F120E030E054
:1012E0008091780390E002964F9710F5E091790392
:1012F000F0917A03832F992787FD9A958083E09157
:101300007903F0917A033196F0937A03E0937903AD
:10131000319721838091790390917A03019690937C
:101320007A0380937903809178038E5F80937803AA
:1013300088E593E00E940E0C62E370E080E090E0AC
:101340000E942F151F910F91FF90EF90DF90CF908B
:1013500008952091CA033091CB03C2CF6F927F9240
:101360008F929F92AF92BF92CF92DF92EF92FF92B5
:101370000F931F93CF93DF93EC01162F0E94091553
:10138000AB01BC01212F30E012E0A12EB12CA20E46
:10139000B31EAA0CBB1CAA0CBB1CAC0EBD1ED501F7
:1013A0006D907D908D909C90461957096809790938
:1013B0004135B3EC5B07B0E06B07B0E07B070CF4A2
:1013C00056C08C819D81AE81BF81CEA0DFA0C81A9E
:1013D000D90AF9013C96EE0FFF1FEC0FFD1F80812B
:1013E0009181C80ED91EDFA2CEA2E8A4F9A40AA555
:1013F0001BA5E40EF51E061F171FE8A6F9A60AA7EF
:101400001BA781E090E002C0880F991F2A95E2F7A0
:101410002CA5282B2CA7460D571D681D791DD5011D
:101420004D935D936D937C9313978C819D81AE81D9
:10143000BF81918380832F30D1F41CA6B601882709
:1014400077FD8095982F20E432E44FE050E00E9431
:10145000E117A80197010E94221839A328A31FA20F
:101460001EA218A619A61AA61BA681E08DA7DF91B9
:10147000CF911F910F91FF90EF90DF90CF90BF9091
:10148000AF909F908F907F906F900895CF93DF9350
:10149000C0914603D09147036C817D818E819F81ED
:1014A00022E030E040E050E00E94221861307105F7
:1014B0008105910541F48C819D81AE81BF810196AA
:1014C000A11DB11D07C08C819D81AE81BF81019797
:1014D000A109B1098C839D83AE83BF836C817D811B
:1014E0008E819F8124E030E040E050E00E9422188D
:1014F000CE010E94AE09DF91CF910895CF93DF9383
:10150000C0914603D09147038C819D81AE81BF81FC
:1015100080FD08C08C819D81AE81BF810196A11D97
:10152000B11D07C08C819D81AE81BF810197A1094A
:10153000B1098C839D83AE83BF836C817D818E8155
:101540009F8124E030E040E050E00E942218CE016C
:101550000E94AE09DF91CF91089584E096E040E0CB
:1015600052EC61E070E00E94940F8AE393E00E94E5
:10157000A1046AE070E080E090E00E942F1584E012
:1015800096E060E072E00E94611288E493E00E94BD
:10159000BD0588E493E063E00E94850588E493E05C
:1015A00061E00E94690588E493E062E00E947705AB
:1015B00084E096E06DE072E00E94611288E493E0BE
:1015C0000E94B505882319F46BE272E002C065E45D
:1015D00072E084E096E00E94611264E670E080E0D0
:1015E00090E00E942F150895CF92DF92FF920F9303
:1015F0001F93DF93CF930F920F92CDB7DEB76C019D
:10160000162FF42EFC01608341831482158216820A
:10161000178228E030E0C20ED31E80E1F60111925D
:101620008A95E9F720E130E0C20ED31E88E0F6018A
:1016300011928A95E9F728EE3FEFC20ED31EF6010C
:1016400011A210A280E291EAA7E0B0E082A393A3E6
:10165000A4A3B5A317A216A210A611A612A613A69C
:1016600014A615A6D0924703C0924603862F0E9467
:10167000B1179A8389838F2D0E94B11729813A81EE
:101680002817390731F4F601148215821682178261
:1016900009C081E090E0A0E0B0E0F601848395838A
:1016A000A683B783812F60E00E94CB168F2D60E068
:1016B0000E94CB16133189F0143128F4133051F104
:1016C000123179F40CC0143119F0153151F402C003
:1016D00083E021C000E082E006C084E01CC085E019
:1016E0001AC001E080E06EE77AE041E050E00E943D
:1016F0007412802F66E47AE041E050E00E94741298
:101700000F900F90CF91DF911F910F91FF90DF907D
:10171000CF90089581E001E0E6CF8130910511F589
:101720006F5F7F4F41F588E493E060E048E60E94F8
:10173000C30488E593E064E076E00E94000C8CE747
:1017400093E064E076E00E94760C84EA93E063E044
:1017500044E00E94CA0B8AEA93E061E042E00E9402
:10176000F40A0895892B39F46F5F7F4F21F48AEAD8
:1017700093E00E94F207089580E090E06FEF7FEF22
:101780000E948D0B089581E090E06FEF7FEF0E9443
:101790008D0B0895FC01628343831182108281E0E6
:1017A000858308950F931F93CF93DF93EC018B01F3
:1017B0008D81882301F16330710514F08A8112C094
:1017C0008FEF6E3F78075CF48A8160E070E00E94E2
:1017D000EA1566277727601B710B8B8108C08A8109
:1017E00060E070E00E94EA158B8160E070E00E948A
:1017F000EA1519830883DF91CF911F910F91089506
:10180000FC017183608310A2029692A381A30895C4
:10181000FC0110A2029692A381A30895CF92DF92B9
:10182000FF920F93DF93CF930F920F92CDB7DEB756
:101830006C01DC01ED91FC91A081B1812D913C9175
:10184000CF016AEAF9011995D601ED91FC91A081C9
:10185000B1812D913C91CF016AEAF9011995D60128
:10186000ED91FC91A081B1812D913C91CF01F601C8
:1018700060A1F9011995FF2400E017C02D913C915A
:101880001197C601800F911D9A838983F9012081E8
:101890003181CD01A981BA8112966C91F901199516
:1018A000E981FA818281F80E0F5FD60190968C91C2
:1018B00090970D90BC91A02D081700F3ED91FC912D
:1018C00011970190F081E02DCD016F2D1995F60152
:1018D00010A2C601029692A381A30F900F90CF9100
:1018E000DF910F91FF90DF90CF900895FC017183FD
:1018F000608312A213A281E090E095A384A316A2B4
:1019000017A208954F925F926F927F928F929F924B
:10191000AF92BF92CF92DF92FF920F931F93CF931C
:10192000DF93EC0144E0442E512C35E0632E712C02
:1019300021E0C22ED12CFF24F39492E0892E912C29
:1019400083E0A82EB12C8BC08CA19DA18330910582
:10195000C1F1843091053CF48130910561F002972A
:1019600009F07DC019C08430910509F441C0059784
:1019700009F075C05EC0E881F981A081B181169639
:101980002D913C911797CF01F90119958A3A09F0E9
:1019900065C09DA28CA263C0E881F981A081B1815C
:1019A00016962D913C911797CF01F90119958A3A16
:1019B000910519F4BDA2ACA252C0FBA2DDA2CCA23B
:1019C0004EC0A881B981ED91FC9111970680F781F5
:1019D000E02DCD01199588A38F3128F081E090E0AA
:1019E0009DA38CA34BC01EA21FA25DA24CA237C018
:1019F0008FA1082F10E0A881B981ED91FC9111977A
:101A00000680F781E02DCD0119950C0F1D1FF801FF
:101A100082832FA1FE01E20FF11D8EA19281890F19
:101A20008EA32F5F2FA388A12817C8F07DA26CA2D8
:101A300016C0DDA2CCA20EA110E0A881B981ED9163
:101A4000FC9111970680F781E02DCD0119950817BB
:101A5000190721F481E08AA319A211C0FBA2E88131
:101A6000F981A081B18114962D913C911597CF01F8
:101A7000F9011995181619060CF466CF80E0DF916C
:101A8000CF911F910F91FF90DF90CF90BF90AF90BB
:101A90009F908F907F906F905F904F9008950895E2
:101AA0001F920F920FB60F920BB60F9211242F9325
:101AB0003F934F938F939F93EF93FF938091C00039
:101AC00082FD1DC04091C600209124043091250460
:101AD0002F5F3F4F2F733070809126049091270421
:101AE0002817390771F0E0912404F0912504EC5196
:101AF000FC4F4083309325042093240402C080913E
:101B0000C600FF91EF919F918F914F913F912F913F
:101B10000F900BBE0F900FBE0F901F901895089559
:101B20001F920F920FB60F920BB60F9211242F93A4
:101B30003F934F938F939F93EF93FF938091C800B0
:101B400082FD1DC04091CE002091AC043091AD04C7
:101B50002F5F3F4F2F7330708091AE049091AF0490
:101B60002817390771F0E091AC04F091AD04E45905
:101B7000FB4F40833093AD042093AC0402C08091AE
:101B8000CE00FF91EF919F918F914F913F912F91B7
:101B90000F900BBE0F900FBE0F901F9018950895D9
:101BA0001F920F920FB60F920BB60F9211242F9324
:101BB0003F934F938F939F93EF93FF938091D00028
:101BC00082FD1DC04091D60020913405309135052D
:101BD0002F5F3F4F2F7330708091360590913705FE
:101BE0002817390771F0E0913405F0913505EC5074
:101BF000FB4F4083309335052093340502C080911C
:101C0000D600FF91EF919F918F914F913F912F912E
:101C10000F900BBE0F900FBE0F901F901895089558
:101C20001F920F920FB60F920BB60F9211242F93A3
:101C30003F934F938F939F93EF93FF938091300146
:101C400082FD1DC0409136012091BC053091BD053B
:101C50002F5F3F4F2F7330708091BE059091BF056D
:101C60002817390771F0E091BC05F091BD05E458E3
:101C7000FA4F40833093BD052093BC0502C080918C
:101C80003601FF91EF919F918F914F913F912F914D
:101C90000F900BBE0F900FBE0F901F901895E09104
:101CA0001006F0911106E05CFF4F81919191208127
:101CB0003181821B930B8F739070892B11F00E94DE
:101CC0004F0DE0913206F0913306E05CFF4F8191B9
:101CD000919120813181821B930B8F739070892B9E
:101CE00011F00E948F0DE0915406F0915506E05CD2
:101CF000FF4F8191919120813181821B930B8F73D2
:101D00009070892B11F00E94CF0DE0917606F09132
:101D10007706E05CFF4F8191919120813181821B98
:101D2000930B8F739070892B11F00E940F0E089502
:101D30001F920F920FB60F920BB60F9211242F9392
:101D40003F938F939F93EF93FF932091680430917B
:101D5000690480916A0490916B042817390731F463
:101D60008091C1008F7D8093C10014C0E0916A040E
:101D7000F0916B04E85DFB4F208180916A049091A3
:101D80006B0401968F73907090936B0480936A0438
:101D90002093C600FF91EF919F918F913F912F91DA
:101DA0000F900BBE0F900FBE0F901F9018951F92B3
:101DB0000F920FB60F920BB60F9211242F933F93F1
:101DC0008F939F93EF93FF932091F0043091F10450
:101DD0008091F2049091F3042817390731F480912F
:101DE000C9008F7D8093C90014C0E091F204F09186
:101DF000F304E055FB4F20818091F2049091F304AD
:101E000001968F7390709093F3048093F204209363
:101E1000CE00FF91EF919F918F913F912F910F9065
:101E20000BBE0F900FBE0F901F9018951F920F9230
:101E30000FB60F920BB60F9211242F933F938F93EF
:101E40009F93EF93FF9320917805309179058091CE
:101E50007A0590917B052817390731F48091D100DC
:101E60008F7D8093D10014C0E0917A05F0917B05BD
:101E7000E85CFA4F208180917A0590917B0501966C
:101E80008F73907090937B0580937A052093D60092
:101E9000FF91EF919F918F913F912F910F900BBEEA
:101EA0000F900FBE0F901F9018951F920F920FB6B4
:101EB0000F920BB60F9211242F933F938F939F9302
:101EC000EF93FF9320910006309101068091020666
:101ED000909103062817390731F4809131018F7DE5
:101EE0008093310114C0E0910206F0910306E054A2
:101EF000FA4F2081809102069091030601968F731C
:101F00009070909303068093020620933601FF9110
:101F1000EF919F918F913F912F910F900BBE0F905A
:101F20000FBE0F901F901895AF92BF92DF92EF9265
:101F3000FF920F931F93CF93DF93EC017A018B01F4
:101F4000DD24403081EE580780E0680780E07807A4
:101F500011F0DD24D39491E0A92EB12CEC89FD89F8
:101F6000DD2069F0C50108A002C0880F991F0A94FE
:101F7000E2F7808360E079E08DE390E005C01082B5
:101F800060E874E88EE190E0A80197010E940018D3
:101F90002150304040405040569547953795279501
:101FA00080E12030380720F0DD2011F0DD24D6CF8D
:101FB000E889F9893083EA89FB89208319A2EE89AF
:101FC000FF89408121E030E0C9010C8C02C0880FFC
:101FD000991F0A94E2F7482B4083EE89FF894081DC
:101FE000C9010D8C02C0880F991F0A94E2F7482B93
:101FF0004083EE89FF894081C9010E8C02C0880FA1
:10200000991F0A94E2F7482B4083EE89FF8980816B
:102010000F8C02C0220F331F0A94E2F72095282369
:102020002083DF91CF911F910F91FF90EF90DF9070
:10203000BF90AF900895DC011C96ED91FC911D9727
:10204000E05CFF4F2191319180819181281B390BF8
:102050002F733070C9010895DC011C96ED91FC913D
:102060001D97E05CFF4F20813181E054F040DF019B
:10207000AE5BBF4F8D919C9111972817390719F4CA
:102080002FEF3FEF07C08D919C91E80FF91F8081E2
:10209000282F30E0C9010895DC011C96ED91FC91D8
:1020A0001D97E05CFF4F20813181E054F040DF015B
:1020B000AE5BBF4F8D919C9111972817390719F48A
:1020C0002FEF3FEF10C08D919C911197E80FF91FF2
:1020D00020818D919C91119701968F73907011962C
:1020E0009C938E9330E0C9010895DC0191968C9108
:1020F0009197882339F05496ED91FC915597808102
:1021000086FFF9CF91961C920895CF93DF93EC014F
:10211000EE85FF85E05CFF4F20813181E054F04087
:102120002F5F3F4F2F733070DF01AE5BBF4F8D913C
:102130009C91119728173907D1F3E05CFF4F8081FC
:102140009181E054F040E80FF91F6083EE85FF8530
:10215000E05CFF4F31832083EE89FF89208181E09D
:1021600090E00F8C02C0880F991F0A94E2F7282B89
:10217000208381E089A3EC89FD898081806480834C
:1021800081E090E0DF91CF9108951F9310920706B0
:102190001092060628EE33E040E050E02093080657
:1021A0003093090640930A0650930B0669E772E0E4
:1021B000709305066093040684EE93E090931106F5
:1021C0008093100688E294E09093130680931206A1
:1021D00085EC90E0909315068093140684EC90E0D3
:1021E000909317068093160680EC90E09093190662
:1021F0008093180681EC90E090931B0680931A065A
:1022000082EC90E090931D0680931C0686EC90E093
:1022100090931F0680931E0614E010932006B3E0EF
:10222000B0932106A7E0A0932206F5E0F0932306E1
:10223000E1E0E093240610922906109228062093EC
:102240002A0630932B0640932C0650932D0670934C
:102250002706609326068CE694E0909333068093DD
:10226000320680EB94E090933506809334068DEC33
:1022700090E090933706809336068CEC90E0909334
:1022800039068093380688EC90E090933B06809363
:102290003A0689EC90E090933D0680933C068AECE8
:1022A00090E090933F0680933E068EEC90E09093F2
:1022B00041068093400610934206B0934306A093D4
:1022C0004406F0934506E093460610924B061092A2
:1022D0004A0620934C0630934D0640934E06509389
:1022E0004F06709349066093480684EF94E09093FC
:1022F00055068093540688E395E0909357068093A3
:10230000560685ED90E0909359068093580684ED2B
:1023100090E090935B0680935A0680ED90E0909356
:102320005D0680935C0681ED90E090935F0680935C
:102330005E0682ED90E0909361068093600686EDE4
:1023400090E0909363068093620610936406B093C6
:102350006506A0936606F0936706E0936806109200
:102360006D0610926C0620936E0630936F064093B4
:1023700070065093710670936B0660936A068CE743
:1023800095E0909377068093760680EC95E09093A5
:1023900079068093780685E391E090937B0680939D
:1023A0007A0684E391E090937D0680937C0680E337
:1023B00091E090937F0680937E0681E391E0909375
:1023C00081068093800682E391E090938306809358
:1023D000820686E391E090938506809384061093AD
:1023E0008606B0938706A0938806F0938906E0934B
:1023F0008A061F910895CF92DF92EF92FF920F937A
:102400001F93CF93DF937C016B018A01C0E0D0E082
:102410000FC0D6016D916D01D701ED91FC91019036
:10242000F081E02DC7011995C80FD91F0150104048
:102430000115110571F7CE01DF91CF911F910F9119
:10244000FF90EF90DF90CF900895EF92FF920F935F
:102450001F938C01DC01ED91FC910190F081E02D46
:102460006DE019957C01D801ED91FC910190F0810E
:10247000E02DC8016AE019959C012E0D3F1DC90190
:102480001F910F91FF90EF900895CF93DF93EC0190
:102490006115710519F420E030E00FC0DB010D90EB
:1024A0000020E9F71197A61BB70BE881F98102809C
:1024B000F381E02DAD0119959C01C901DF91CF9108
:1024C0000895EF92FF920F931F937C010E94451293
:1024D0008C01C7010E942512080F191FC8011F9106
:1024E0000F91FF90EF900895883008F078C0E82FA2
:1024F000F0E0EE0FFF1FE457F94F718360838330E4
:10250000D9F0843030F4813009F444C0823060F472
:1025100039C0853051F18530D8F0863009F446C095
:10252000873009F05CC04FC0809169008C7F842B9C
:1025300080936900E89A089580916900440F551FBF
:10254000440F551F837F842B80936900E99A089577
:102550008091690074E0440F551F7A95E1F78F7CF4
:10256000842B80936900EA9A08958091690066E05F
:10257000440F551F6A95E1F78F73842B8093690090
:10258000EB9A089580916A008C7F842B80936A0077
:10259000EC9A089580916A00440F551F440F551F0F
:1025A000837F842B80936A00ED9A089580916A005E
:1025B00024E0440F551F2A95E1F78F7C842B8093EC
:1025C0006A00EE9A089580916A0096E0440F551FC4
:1025D0009A95E1F78F73842B80936A00EF9A0895A0
:1025E000883048F5833091F0843028F48130B1F0A0
:1025F000823050F411C0853069F0853048F0863063
:1026000079F0873081F40EC0E8980DC0E9980BC0CE
:10261000EA9809C0EB9807C0EC9805C0ED9803C094
:10262000EE9801C0EF98E82FF0E0EE0FFF1FE4579F
:10263000F94F1182108208951F920F920FB60F92D8
:102640000BB60F9211242F933F934F935F936F9389
:102650007F938F939F93AF93BF93EF93FF9380915B
:10266000900690919106892B29F0E0919006F091C7
:1026700091061995FF91EF91BF91AF919F918F9125
:102680007F916F915F914F913F912F910F900BBE72
:102690000F900FBE0F901F9018951F920F920FB6BC
:1026A0000F920BB60F9211242F933F934F935F938A
:1026B0006F937F938F939F93AF93BF93EF93FF930A
:1026C0008091920690919306892B29F0E0919206D1
:1026D000F09193061995FF91EF91BF91AF919F9162
:1026E0008F917F916F915F914F913F912F910F90BB
:1026F0000BBE0F900FBE0F901F9018951F920F9258
:102700000FB60F920BB60F9211242F933F934F9356
:102710005F936F937F938F939F93AF93BF93EF9349
:10272000FF938091940690919506892B29F0E09172
:102730009406F09195061995FF91EF91BF91AF9195
:102740009F918F917F916F915F914F913F912F91C9
:102750000F900BBE0F900FBE0F901F9018951F92F9
:102760000F920FB60F920BB60F9211242F933F9337
:102770004F935F936F937F938F939F93AF93BF9389
:10278000EF93FF938091960690919706892B29F0FD
:10279000E0919606F09197061995FF91EF91BF9100
:1027A000AF919F918F917F916F915F914F913F91E9
:1027B0002F910F900BBE0F900FBE0F901F9018958A
:1027C0001F920F920FB60F920BB60F9211242F93F8
:1027D0003F934F935F936F937F938F939F93AF93A9
:1027E000BF93EF93FF9380918C0690918D06892B78
:1027F00029F0E0918C06F0918D061995FF91EF91EB
:10280000BF91AF919F918F917F916F915F914F9108
:102810003F912F910F900BBE0F900FBE0F901F9006
:1028200018951F920F920FB60F920BB60F921124AC
:102830002F933F934F935F936F937F938F939F93C8
:10284000AF93BF93EF93FF9380918E0690918F0685
:10285000892B29F0E0918E06F0918F061995FF9152
:10286000EF91BF91AF919F918F917F916F915F9108
:102870004F913F912F910F900BBE0F900FBE0F9075
:102880001F9018951F920F920FB60F920BB60F92D2
:1028900011242F933F934F935F936F937F938F9365
:1028A0009F93AF93BF93EF93FF938091980690917E
:1028B0009906892B29F0E0919806F09199061995CF
:1028C000FF91EF91BF91AF919F918F917F916F9108
:1028D0005F914F913F912F910F900BBE0F900FBEC4
:1028E0000F901F9018951F920F920FB60F920BB674
:1028F0000F9211242F933F934F935F936F937F9386
:102900008F939F93AF93BF93EF93FF9380919A061A
:1029100090919B06892B29F0E0919A06F0919B06F5
:102920001995FF91EF91BF91AF919F918F917F91F9
:102930006F915F914F913F912F910F900BBE0F9030
:102940000FBE0F901F901895CF93DF930E948815AC
:102950000E94AD0ACFE4DEE00E9400082097E1F378
:102960000E944F0EF9CF1F920F920FB60F921124B3
:102970002F933F938F939F93AF93BF938091A00624
:102980009091A106A091A206B091A3063091A40651
:102990000196A11DB11D232F2D5F2D3720F02D573E
:1029A0000196A11DB11D2093A4068093A0069093CB
:1029B000A106A093A206B093A30680919C069091D5
:1029C0009D06A0919E06B0919F060196A11DB11D86
:1029D00080939C0690939D06A0939E06B0939F06BD
:1029E000BF91AF919F918F913F912F910F900FBE0B
:1029F0000F901F9018958FB7F8942091A0063091F2
:102A0000A1064091A2065091A3068FBFB901CA0149
:102A100008959FB7F89420919C0630919D064091AF
:102A20009E0650919F0686B5A89B06C08F3F21F059
:102A30002F5F3F4F4F4F5F4F9FBF542F432F322F7A
:102A40002227280F311D411D511D82E0220F331F07
:102A5000441F551F8A95D1F7B901CA0108959B01FA
:102A6000AC017FB7F89480919C0690919D06A0914F
:102A70009E06B0919F0666B5A89B05C06F3F19F0F2
:102A80000196A11DB11D7FBFBA2FA92F982F8827AE
:102A9000860F911DA11DB11D62E0880F991FAA1F0D
:102AA000BB1F6A95D1F7BC012DC0FFB7F894809188
:102AB0009C0690919D06A0919E06B0919F06E6B55A
:102AC000A89B05C0EF3F19F00196A11DB11DFFBFE6
:102AD000BA2FA92F982F88278E0F911DA11DB11DE8
:102AE000E2E0880F991FAA1FBB1FEA95D1F7861B4A
:102AF000970B885E9340C8F22150304040405040D0
:102B000068517C4F211531054105510571F6089535
:102B1000789484B5826084BD84B5816084BD85B5B8
:102B2000826085BD85B5816085BDEEE6F0E080817F
:102B300081608083E1E8F0E01082808182608083A0
:102B4000808181608083E0E8F0E080818160808323
:102B5000E1EBF0E0808184608083E0EBF0E0808155
:102B600081608083E1E9F0E0808182608083808100
:102B700081608083E0E9F0E0808181608083E1EA28
:102B8000F0E0808182608083808181608083E0EAE0
:102B9000F0E0808181608083E1E2F1E08081826009
:102BA0008083808181608083E0E2F1E080818160C8
:102BB0008083EAE7F0E080818460808380818260A6
:102BC000808380818160808380818068808310928F
:102BD000C10008951F93CF93DF93182FEB0161E09D
:102BE0000E94CB16209709F4CBC087E0CF3FD807CF
:102BF00009F4C9C0E12FF0E0E254FE4F849189301E
:102C000009F466C08A30B0F48430F1F1853040F4C4
:102C1000823059F1833070F5813009F0AEC020C0A8
:102C2000873009F443C0883008F048C0863009F086
:102C3000A4C034C08D3009F478C08E3038F48B30A5
:102C400009F45AC08C3008F066C04CC0803109F4D9
:102C500080C0813109F487C08F3009F08EC06FC009
:102C600084B5806884BDC7BD92C084B5806284BDD0
:102C7000C8BD8DC080918000806880938000D09313
:102C80008900C093880083C0809180008062809317
:102C90008000D0938B00C0938A0079C08091B000EF
:102CA00080688093B000C093B30071C08091B00081
:102CB00080628093B000C093B40069C0809190009E
:102CC000806880939000D0939900C09398005FC073
:102CD00080919000806280939000D0939B00C0937D
:102CE0009A0055C080919000886080939000D093A6
:102CF0009D00C0939C004BC08091A0008068809391
:102D0000A0008091A0008F7B8093A000D093A900A9
:102D1000C093A8003CC08091A00080628093A00076
:102D2000D093AB00C093AA0032C08091A00088600D
:102D30008093A000D093AD00C093AC0028C08091D8
:102D40002001806880932001D0932901C09328013D
:102D50001EC080912001806280932001D0932B01BE
:102D6000C0932A0114C080912001886080932001C3
:102D7000D0932D01C0932C010AC0C038D1051CF49A
:102D8000812F60E002C0812F61E00E947E17DF91F9
:102D9000CF911F910895CF93DF93482F50E0CA0140
:102DA00088589E4FFC0134914E5C5E4FFA0184912D
:102DB000882369F190E0880F991FFC01EC51FF4FC7
:102DC000A591B491FC01E250FF4FC591D4916623C7
:102DD00051F42FB7F8948C91932F909589238C936D
:102DE000888189230BC0623061F42FB7F8948C91ED
:102DF000932F909589238C938881832B88832FBF71
:102E000006C09FB7F8948C91832B8C939FBFDF9162
:102E1000CF910895893009F449C08A30A0F48430F4
:102E200051F1853040F4823079F1833000F5813002
:102E300009F063C026C0873079F1883098F5863074
:102E400009F05BC025C08D3009F442C08E3028F4F3
:102E50008B30B1F18C30C0F52DC0803109F442C007
:102E6000813109F445C08F3009F047C037C08091E7
:102E700080008F7703C0809180008F7D80938000D9
:102E8000089584B58F7702C084B58F7D84BD089581
:102E90008091B0008F7703C08091B0008F7D8093C8
:102EA000B0000895809190008F7707C080919000C6
:102EB0008F7D03C080919000877F8093900008955C
:102EC0008091A0008F7707C08091A0008F7D03C004
:102ED0008091A000877F8093A000089580912001B9
:102EE0008F7703C0809120018F7D8093200108950A
:102EF00080912001877F809320010895FF920F9396
:102F00001F93F62E482F50E0CA0182549E4FFC01B9
:102F10002491CA0188589E4FFC0114914E5C5E4F6B
:102F2000FA0104910023C9F0222319F0822F0E9494
:102F30000A17E02FF0E0EE0FFF1FE250FF4FA591C0
:102F4000B4919FB7F894FF2021F48C9110958123C0
:102F500002C08C91812B8C939FBF1F910F91FF908A
:102F600008950F931F93482F50E0CA0182549E4F3B
:102F7000FC012491CA0188589E4FFC0104914E5CCB
:102F80005E4FFA011491112319F420E030E015C0CE
:102F9000222319F0822F0E940A17812F90E0880FB8
:102FA000991F885E9E4FFC01A591B4918C9120E001
:102FB00030E0802311F021E030E0C9011F910F9132
:102FC0000895629FD001739FF001829FE00DF11D73
:102FD000649FE00DF11D929FF00D839FF00D749F93
:102FE000F00D659FF00D9927729FB00DE11DF91F3F
:102FF000639FB00DE11DF91FBD01CF01112408959C
:10300000A1E21A2EAA1BBB1BFD010DC0AA1FBB1FEC
:10301000EE1FFF1FA217B307E407F50720F0A21B5E
:10302000B30BE40BF50B661F771F881F991F1A94CB
:1030300069F760957095809590959B01AC01BD01F5
:10304000CF01089597FB092E05260ED057FD04D019
:10305000D7DF0AD0001C38F4509540953095219563
:103060003F4F4F4F5F4F0895F6F7909580957095BD
:1030700061957F4F8F4F9F4F0895EE0FFF1F059073
:10308000F491E02D199412E0CAE0D2E004C0FE01F0
:103090000E943F182296CC30D107C9F7F894FFCF91
:1030A00048656C6C6F206265617574790054657356
:1030B00074696E672064657669636520636F6E6E00
:1030C000656374696F6E732E2E2E004D5055363029
:1030D000353020636F6E6E656374696F6E20666154
:1030E000696C6564004D50553630353020636F6E25
:1030F0006E656374696F6E20737563636573736661
:10310000756C00E8030000000049041804D103DADC
:1031100003EF030004000000008510FB111B104C9E
:06312000102C10751000D8
:00000001FF
